{
  "_format": "hh-sol-artifact-1",
  "contractName": "Orcastrator",
  "sourceName": "contracts/Orcastrator.sol",
  "abi": [
    {
      "inputs": [],
      "stateMutability": "nonpayable",
      "type": "constructor"
    },
    {
      "inputs": [
        {
          "internalType": "string",
          "name": "_name",
          "type": "string"
        },
        {
          "internalType": "string",
          "name": "_symbol",
          "type": "string"
        },
        {
          "internalType": "address",
          "name": "_usdcAddress",
          "type": "address"
        },
        {
          "internalType": "address",
          "name": "_uniswapFactoryAddress",
          "type": "address"
        }
      ],
      "name": "createFund",
      "outputs": [
        {
          "internalType": "uint256",
          "name": "fundId",
          "type": "uint256"
        },
        {
          "internalType": "address",
          "name": "fundAddress",
          "type": "address"
        }
      ],
      "stateMutability": "nonpayable",
      "type": "function"
    },
    {
      "inputs": [],
      "name": "fundCount",
      "outputs": [
        {
          "internalType": "uint256",
          "name": "",
          "type": "uint256"
        }
      ],
      "stateMutability": "view",
      "type": "function"
    },
    {
      "inputs": [
        {
          "internalType": "uint256",
          "name": "",
          "type": "uint256"
        }
      ],
      "name": "funds",
      "outputs": [
        {
          "internalType": "address",
          "name": "",
          "type": "address"
        }
      ],
      "stateMutability": "view",
      "type": "function"
    }
  ],
  "bytecode": "0x6080604052348015600f57600080fd5b50614a588061001f6000396000f3fe608060405234801561001057600080fd5b50600436106100415760003560e01c80633f936ff5146100465780637b8e889514610064578063bea440ea14610094575b600080fd5b61004e6100c5565b60405161005b91906101de565b60405180910390f35b61007e60048036038101906100799190610239565b6100cb565b60405161008b91906102a7565b60405180910390f35b6100ae60048036038101906100a99190610434565b6100fe565b6040516100bc9291906104d3565b60405180910390f35b60005481565b60016020528060005260406000206000915054906101000a900473ffffffffffffffffffffffffffffffffffffffff1681565b60008060008686868633604051610114906101b8565b61012295949392919061057b565b604051809103906000f08015801561013e573d6000803e3d6000fd5b5090508091506000808154809291906101569061060b565b919050559250816001600085815260200190815260200160002060006101000a81548173ffffffffffffffffffffffffffffffffffffffff021916908373ffffffffffffffffffffffffffffffffffffffff1602179055505094509492505050565b6143cf8061065483390190565b6000819050919050565b6101d8816101c5565b82525050565b60006020820190506101f360008301846101cf565b92915050565b6000604051905090565b600080fd5b600080fd5b610216816101c5565b811461022157600080fd5b50565b6000813590506102338161020d565b92915050565b60006020828403121561024f5761024e610203565b5b600061025d84828501610224565b91505092915050565b600073ffffffffffffffffffffffffffffffffffffffff82169050919050565b600061029182610266565b9050919050565b6102a181610286565b82525050565b60006020820190506102bc6000830184610298565b92915050565b600080fd5b600080fd5b6000601f19601f8301169050919050565b7f4e487b7100000000000000000000000000000000000000000000000000000000600052604160045260246000fd5b610315826102cc565b810181811067ffffffffffffffff82111715610334576103336102dd565b5b80604052505050565b60006103476101f9565b9050610353828261030c565b919050565b600067ffffffffffffffff821115610373576103726102dd565b5b61037c826102cc565b9050602081019050919050565b82818337600083830152505050565b60006103ab6103a684610358565b61033d565b9050828152602081018484840111156103c7576103c66102c7565b5b6103d2848285610389565b509392505050565b600082601f8301126103ef576103ee6102c2565b5b81356103ff848260208601610398565b91505092915050565b61041181610286565b811461041c57600080fd5b50565b60008135905061042e81610408565b92915050565b6000806000806080858703121561044e5761044d610203565b5b600085013567ffffffffffffffff81111561046c5761046b610208565b5b610478878288016103da565b945050602085013567ffffffffffffffff81111561049957610498610208565b5b6104a5878288016103da565b93505060406104b68782880161041f565b92505060606104c78782880161041f565b91505092959194509250565b60006040820190506104e860008301856101cf565b6104f56020830184610298565b9392505050565b600081519050919050565b600082825260208201905092915050565b60005b8381101561053657808201518184015260208101905061051b565b60008484015250505050565b600061054d826104fc565b6105578185610507565b9350610567818560208601610518565b610570816102cc565b840191505092915050565b600060a08201905081810360008301526105958188610542565b905081810360208301526105a98187610542565b90506105b86040830186610298565b6105c56060830185610298565b6105d26080830184610298565b9695505050505050565b7f4e487b7100000000000000000000000000000000000000000000000000000000600052601160045260246000fd5b6000610616826101c5565b91507fffffffffffffffffffffffffffffffffffffffffffffffffffffffffffffffff8203610648576106476105dc565b5b60018201905091905056fe608060405234801561001057600080fd5b506040516143cf3803806143cf83398181016040528101906100329190610788565b80600073ffffffffffffffffffffffffffffffffffffffff168173ffffffffffffffffffffffffffffffffffffffff16036100a55760006040517f1e4fbdf700000000000000000000000000000000000000000000000000000000815260040161009c919061084a565b60405180910390fd5b6100b4816101e860201b60201c565b5082600460006101000a81548173ffffffffffffffffffffffffffffffffffffffff021916908373ffffffffffffffffffffffffffffffffffffffff16021790555081600560006101000a81548173ffffffffffffffffffffffffffffffffffffffff021916908373ffffffffffffffffffffffffffffffffffffffff160217905550610168600460009054906101000a900473ffffffffffffffffffffffffffffffffffffffff166102ac60201b60201c565b8484604051610176906105a8565b6101819291906108ba565b604051809103906000f08015801561019d573d6000803e3d6000fd5b50600660006101000a81548173ffffffffffffffffffffffffffffffffffffffff021916908373ffffffffffffffffffffffffffffffffffffffff1602179055505050505050610a44565b60008060009054906101000a900473ffffffffffffffffffffffffffffffffffffffff169050816000806101000a81548173ffffffffffffffffffffffffffffffffffffffff021916908373ffffffffffffffffffffffffffffffffffffffff1602179055508173ffffffffffffffffffffffffffffffffffffffff168173ffffffffffffffffffffffffffffffffffffffff167f8be0079c531659141344cd1fd0a4f28419497f9722a3daafe3b4186f6b6457e060405160405180910390a35050565b6102ba6104de60201b60201c565b6000600360008373ffffffffffffffffffffffffffffffffffffffff1673ffffffffffffffffffffffffffffffffffffffff168152602001908152602001600020541461033c576040517f08c379a00000000000000000000000000000000000000000000000000000000081526004016103339061093d565b60405180910390fd5b600060016000815461034d90610996565b919050819055905080600360008473ffffffffffffffffffffffffffffffffffffffff1673ffffffffffffffffffffffffffffffffffffffff1681526020019081526020016000208190555060008273ffffffffffffffffffffffffffffffffffffffff1663313ce5676040518163ffffffff1660e01b8152600401602060405180830381865afa1580156103e6573d6000803e3d6000fd5b505050506040513d601f19601f8201168201806040525081019061040a9190610a17565b905060405180608001604052808381526020018473ffffffffffffffffffffffffffffffffffffffff168152602001600081526020018260ff16815250600260008481526020019081526020016000206000820151816000015560208201518160010160006101000a81548173ffffffffffffffffffffffffffffffffffffffff021916908373ffffffffffffffffffffffffffffffffffffffff1602179055506040820151816002015560608201518160030160006101000a81548160ff021916908360ff160217905550905050505050565b6104ec61057760201b60201c565b73ffffffffffffffffffffffffffffffffffffffff1661051061057f60201b60201c565b73ffffffffffffffffffffffffffffffffffffffff16146105755761053961057760201b60201c565b6040517f118cdaa700000000000000000000000000000000000000000000000000000000815260040161056c919061084a565b60405180910390fd5b565b600033905090565b60008060009054906101000a900473ffffffffffffffffffffffffffffffffffffffff16905090565b61175980612c7683390190565b6000604051905090565b600080fd5b600080fd5b600080fd5b600080fd5b6000601f19601f8301169050919050565b7f4e487b7100000000000000000000000000000000000000000000000000000000600052604160045260246000fd5b61061c826105d3565b810181811067ffffffffffffffff8211171561063b5761063a6105e4565b5b80604052505050565b600061064e6105b5565b905061065a8282610613565b919050565b600067ffffffffffffffff82111561067a576106796105e4565b5b610683826105d3565b9050602081019050919050565b60005b838110156106ae578082015181840152602081019050610693565b60008484015250505050565b60006106cd6106c88461065f565b610644565b9050828152602081018484840111156106e9576106e86105ce565b5b6106f4848285610690565b509392505050565b600082601f830112610711576107106105c9565b5b81516107218482602086016106ba565b91505092915050565b600073ffffffffffffffffffffffffffffffffffffffff82169050919050565b60006107558261072a565b9050919050565b6107658161074a565b811461077057600080fd5b50565b6000815190506107828161075c565b92915050565b600080600080600060a086880312156107a4576107a36105bf565b5b600086015167ffffffffffffffff8111156107c2576107c16105c4565b5b6107ce888289016106fc565b955050602086015167ffffffffffffffff8111156107ef576107ee6105c4565b5b6107fb888289016106fc565b945050604061080c88828901610773565b935050606061081d88828901610773565b925050608061082e88828901610773565b9150509295509295909350565b6108448161074a565b82525050565b600060208201905061085f600083018461083b565b92915050565b600081519050919050565b600082825260208201905092915050565b600061088c82610865565b6108968185610870565b93506108a6818560208601610690565b6108af816105d3565b840191505092915050565b600060408201905081810360008301526108d48185610881565b905081810360208301526108e88184610881565b90509392505050565b7f546f6b656e20616c726561647920737570706f72746564000000000000000000600082015250565b6000610927601783610870565b9150610932826108f1565b602082019050919050565b600060208201905081810360008301526109568161091a565b9050919050565b7f4e487b7100000000000000000000000000000000000000000000000000000000600052601160045260246000fd5b6000819050919050565b60006109a18261098c565b91507fffffffffffffffffffffffffffffffffffffffffffffffffffffffffffffffff82036109d3576109d261095d565b5b600182019050919050565b600060ff82169050919050565b6109f4816109de565b81146109ff57600080fd5b50565b600081519050610a11816109eb565b92915050565b600060208284031215610a2d57610a2c6105bf565b5b6000610a3b84828501610a02565b91505092915050565b61222380610a536000396000f3fe608060405234801561001057600080fd5b50600436106101005760003560e01c8063aaf5eb6811610097578063e8378fbf11610066578063e8378fbf1461027a578063e9303209146102aa578063f2fde38b146102c8578063f688bcfb146102e457610100565b8063aaf5eb68146101dd578063c4b19b54146101fb578063d02641a01461022e578063df791e501461025e57610100565b8063715018a6116100d3578063715018a6146101795780638bdb2afa146101835780638da5cb5b146101a1578063a06101d0146101bf57610100565b8063315a095d1461010557806344d5989d146101215780636c9fa59e1461013f5780636d69fcaf1461015d575b600080fd5b61011f600480360381019061011a91906116e4565b610300565b005b6101296105c6565b6040516101369190611720565b60405180910390f35b6101476105cc565b60405161015491906117ba565b60405180910390f35b61017760048036038101906101729190611813565b6105f2565b005b61018161081e565b005b61018b610832565b6040516101989190611861565b60405180910390f35b6101a9610858565b6040516101b6919061188b565b60405180910390f35b6101c7610881565b6040516101d49190611720565b60405180910390f35b6101e5610986565b6040516101f29190611720565b60405180910390f35b610215600480360381019061021091906116e4565b610992565b60405161022594939291906118c2565b60405180910390f35b61024860048036038101906102439190611813565b6109ef565b6040516102559190611720565b60405180910390f35b61027860048036038101906102739190611907565b610f33565b005b610294600480360381019061028f9190611813565b61125d565b6040516102a19190611720565b60405180910390f35b6102b2611275565b6040516102bf919061188b565b60405180910390f35b6102e260048036038101906102dd9190611813565b61129b565b005b6102fe60048036038101906102f991906116e4565b611321565b005b6000600660009054906101000a900473ffffffffffffffffffffffffffffffffffffffff1673ffffffffffffffffffffffffffffffffffffffff166318160ddd6040518163ffffffff1660e01b8152600401602060405180830381865afa15801561036f573d6000803e3d6000fd5b505050506040513d601f19601f82011682018060405250810190610393919061196f565b9050600660009054906101000a900473ffffffffffffffffffffffffffffffffffffffff1673ffffffffffffffffffffffffffffffffffffffff16639dc29fac33846040518363ffffffff1660e01b81526004016103f292919061199c565b600060405180830381600087803b15801561040c57600080fd5b505af1158015610420573d6000803e3d6000fd5b505050506000600190505b60015481116105c157600060026000838152602001908152602001600020604051806080016040529081600082015481526020016001820160009054906101000a900473ffffffffffffffffffffffffffffffffffffffff1673ffffffffffffffffffffffffffffffffffffffff1673ffffffffffffffffffffffffffffffffffffffff168152602001600282015481526020016003820160009054906101000a900460ff1660ff1660ff168152505090506000838583604001516104f091906119f4565b6104fa9190611a65565b9050816020015173ffffffffffffffffffffffffffffffffffffffff1663a9059cbb33836040518363ffffffff1660e01b815260040161053b92919061199c565b6020604051808303816000875af115801561055a573d6000803e3d6000fd5b505050506040513d601f19601f8201168201806040525081019061057e9190611ace565b50806002600085815260200190815260200160002060020160008282546105a59190611afb565b92505081905550505080806105b990611b2f565b91505061042b565b505050565b60015481565b600660009054906101000a900473ffffffffffffffffffffffffffffffffffffffff1681565b6105fa611556565b6000600360008373ffffffffffffffffffffffffffffffffffffffff1673ffffffffffffffffffffffffffffffffffffffff168152602001908152602001600020541461067c576040517f08c379a000000000000000000000000000000000000000000000000000000000815260040161067390611bd4565b60405180910390fd5b600060016000815461068d90611b2f565b919050819055905080600360008473ffffffffffffffffffffffffffffffffffffffff1673ffffffffffffffffffffffffffffffffffffffff1681526020019081526020016000208190555060008273ffffffffffffffffffffffffffffffffffffffff1663313ce5676040518163ffffffff1660e01b8152600401602060405180830381865afa158015610726573d6000803e3d6000fd5b505050506040513d601f19601f8201168201806040525081019061074a9190611c20565b905060405180608001604052808381526020018473ffffffffffffffffffffffffffffffffffffffff168152602001600081526020018260ff16815250600260008481526020019081526020016000206000820151816000015560208201518160010160006101000a81548173ffffffffffffffffffffffffffffffffffffffff021916908373ffffffffffffffffffffffffffffffffffffffff1602179055506040820151816002015560608201518160030160006101000a81548160ff021916908360ff160217905550905050505050565b610826611556565b61083060006115dd565b565b600560009054906101000a900473ffffffffffffffffffffffffffffffffffffffff1681565b60008060009054906101000a900473ffffffffffffffffffffffffffffffffffffffff16905090565b600080600090506000600190505b600154811161097e57600060026000838152602001908152602001600020604051806080016040529081600082015481526020016001820160009054906101000a900473ffffffffffffffffffffffffffffffffffffffff1673ffffffffffffffffffffffffffffffffffffffff1673ffffffffffffffffffffffffffffffffffffffff168152602001600282015481526020016003820160009054906101000a900460ff1660ff1660ff1681525050905061094e81602001516109ef565b816040015161095d91906119f4565b836109689190611c4d565b925050808061097690611b2f565b91505061088f565b508091505090565b670de0b6b3a764000081565b60026020528060005260406000206000915090508060000154908060010160009054906101000a900473ffffffffffffffffffffffffffffffffffffffff16908060020154908060030160009054906101000a900460ff16905084565b600080600360008473ffffffffffffffffffffffffffffffffffffffff1673ffffffffffffffffffffffffffffffffffffffff1681526020019081526020016000205403610a72576040517f08c379a0000000000000000000000000000000000000000000000000000000008152600401610a6990611ccd565b60405180910390fd5b600060026000600360008673ffffffffffffffffffffffffffffffffffffffff1673ffffffffffffffffffffffffffffffffffffffff16815260200190815260200160002054815260200190815260200160002060030160009054906101000a900460ff1690506000600260006001815260200190815260200160002060030160009054906101000a900460ff1690506000600560009054906101000a900473ffffffffffffffffffffffffffffffffffffffff1673ffffffffffffffffffffffffffffffffffffffff1663e6a4390586600460009054906101000a900473ffffffffffffffffffffffffffffffffffffffff166040518363ffffffff1660e01b8152600401610b83929190611ced565b602060405180830381865afa158015610ba0573d6000803e3d6000fd5b505050506040513d601f19601f82011682018060405250810190610bc49190611d2b565b9050600073ffffffffffffffffffffffffffffffffffffffff168173ffffffffffffffffffffffffffffffffffffffff1603610c35576040517f08c379a0000000000000000000000000000000000000000000000000000000008152600401610c2c90611dca565b60405180910390fd5b60008190506000808273ffffffffffffffffffffffffffffffffffffffff16630902f1ac6040518163ffffffff1660e01b8152600401606060405180830381865afa158015610c88573d6000803e3d6000fd5b505050506040513d601f19601f82011682018060405250810190610cac9190611e6c565b509150915060008373ffffffffffffffffffffffffffffffffffffffff16630dfe16816040518163ffffffff1660e01b8152600401602060405180830381865afa158015610cfe573d6000803e3d6000fd5b505050506040513d601f19601f82011682018060405250810190610d229190611d2b565b90508873ffffffffffffffffffffffffffffffffffffffff168173ffffffffffffffffffffffffffffffffffffffff1603610e41578560ff168760ff1610610dd25760008688610d729190611ebf565b600a610d7e9190612027565b9050836dffffffffffffffffffffffffffff1681670de0b6b3a7640000856dffffffffffffffffffffffffffff16610db691906119f4565b610dc091906119f4565b610dca9190611a65565b985050610e3c565b60008787610de09190611ebf565b600a610dec9190612027565b905080846dffffffffffffffffffffffffffff16610e0a91906119f4565b670de0b6b3a7640000846dffffffffffffffffffffffffffff16610e2e91906119f4565b610e389190611a65565b9850505b610f27565b8560ff168760ff1610610ebc5760008688610e5c9190611ebf565b600a610e689190612027565b9050826dffffffffffffffffffffffffffff1681670de0b6b3a7640000866dffffffffffffffffffffffffffff16610ea091906119f4565b610eaa91906119f4565b610eb49190611a65565b985050610f26565b60008787610eca9190611ebf565b600a610ed69190612027565b905080836dffffffffffffffffffffffffffff16610ef491906119f4565b670de0b6b3a7640000856dffffffffffffffffffffffffffff16610f1891906119f4565b610f229190611a65565b9850505b5b50505050505050919050565b610f3b611556565b6000600360008573ffffffffffffffffffffffffffffffffffffffff1673ffffffffffffffffffffffffffffffffffffffff1681526020019081526020016000205403610fbd576040517f08c379a0000000000000000000000000000000000000000000000000000000008152600401610fb4906120be565b60405180910390fd5b6000600360008473ffffffffffffffffffffffffffffffffffffffff1673ffffffffffffffffffffffffffffffffffffffff168152602001908152602001600020540361103f576040517f08c379a00000000000000000000000000000000000000000000000000000000081526004016110369061212a565b60405180910390fd5b600060026000600360008773ffffffffffffffffffffffffffffffffffffffff1673ffffffffffffffffffffffffffffffffffffffff168152602001908152602001600020548152602001908152602001600020604051806080016040529081600082015481526020016001820160009054906101000a900473ffffffffffffffffffffffffffffffffffffffff1673ffffffffffffffffffffffffffffffffffffffff1673ffffffffffffffffffffffffffffffffffffffff168152602001600282015481526020016003820160009054906101000a900460ff1660ff1660ff16815250509050600060026000600360008773ffffffffffffffffffffffffffffffffffffffff1673ffffffffffffffffffffffffffffffffffffffff168152602001908152602001600020548152602001908152602001600020604051806080016040529081600082015481526020016001820160009054906101000a900473ffffffffffffffffffffffffffffffffffffffff1673ffffffffffffffffffffffffffffffffffffffff1673ffffffffffffffffffffffffffffffffffffffff168152602001600282015481526020016003820160009054906101000a900460ff1660ff1660ff168152505090508282604001511015611256576040517f08c379a000000000000000000000000000000000000000000000000000000000815260040161124d90612196565b60405180910390fd5b5050505050565b60036020528060005260406000206000915090505481565b600460009054906101000a900473ffffffffffffffffffffffffffffffffffffffff1681565b6112a3611556565b600073ffffffffffffffffffffffffffffffffffffffff168173ffffffffffffffffffffffffffffffffffffffff16036113155760006040517f1e4fbdf700000000000000000000000000000000000000000000000000000000815260040161130c919061188b565b60405180910390fd5b61131e816115dd565b50565b600460009054906101000a900473ffffffffffffffffffffffffffffffffffffffff1673ffffffffffffffffffffffffffffffffffffffff166323b872dd3330846040518463ffffffff1660e01b8152600401611380939291906121b6565b6020604051808303816000875af115801561139f573d6000803e3d6000fd5b505050506040513d601f19601f820116820180604052508101906113c39190611ace565b5060006113ce610881565b90506000600660009054906101000a900473ffffffffffffffffffffffffffffffffffffffff1673ffffffffffffffffffffffffffffffffffffffff166318160ddd6040518163ffffffff1660e01b8152600401602060405180830381865afa15801561143f573d6000803e3d6000fd5b505050506040513d601f19601f82011682018060405250810190611463919061196f565b905060008282670de0b6b3a76400008661147d91906119f4565b61148791906119f4565b6114919190611a65565b9050600660009054906101000a900473ffffffffffffffffffffffffffffffffffffffff1673ffffffffffffffffffffffffffffffffffffffff166340c10f1933836040518363ffffffff1660e01b81526004016114f092919061199c565b600060405180830381600087803b15801561150a57600080fd5b505af115801561151e573d6000803e3d6000fd5b5050505083600260006001815260200190815260200160002060020160008282546115499190611c4d565b9250508190555050505050565b61155e6116a1565b73ffffffffffffffffffffffffffffffffffffffff1661157c610858565b73ffffffffffffffffffffffffffffffffffffffff16146115db5761159f6116a1565b6040517f118cdaa70000000000000000000000000000000000000000000000000000000081526004016115d2919061188b565b60405180910390fd5b565b60008060009054906101000a900473ffffffffffffffffffffffffffffffffffffffff169050816000806101000a81548173ffffffffffffffffffffffffffffffffffffffff021916908373ffffffffffffffffffffffffffffffffffffffff1602179055508173ffffffffffffffffffffffffffffffffffffffff168173ffffffffffffffffffffffffffffffffffffffff167f8be0079c531659141344cd1fd0a4f28419497f9722a3daafe3b4186f6b6457e060405160405180910390a35050565b600033905090565b600080fd5b6000819050919050565b6116c1816116ae565b81146116cc57600080fd5b50565b6000813590506116de816116b8565b92915050565b6000602082840312156116fa576116f96116a9565b5b6000611708848285016116cf565b91505092915050565b61171a816116ae565b82525050565b60006020820190506117356000830184611711565b92915050565b600073ffffffffffffffffffffffffffffffffffffffff82169050919050565b6000819050919050565b600061178061177b6117768461173b565b61175b565b61173b565b9050919050565b600061179282611765565b9050919050565b60006117a482611787565b9050919050565b6117b481611799565b82525050565b60006020820190506117cf60008301846117ab565b92915050565b60006117e08261173b565b9050919050565b6117f0816117d5565b81146117fb57600080fd5b50565b60008135905061180d816117e7565b92915050565b600060208284031215611829576118286116a9565b5b6000611837848285016117fe565b91505092915050565b600061184b82611787565b9050919050565b61185b81611840565b82525050565b60006020820190506118766000830184611852565b92915050565b611885816117d5565b82525050565b60006020820190506118a0600083018461187c565b92915050565b600060ff82169050919050565b6118bc816118a6565b82525050565b60006080820190506118d76000830187611711565b6118e4602083018661187c565b6118f16040830185611711565b6118fe60608301846118b3565b95945050505050565b6000806000606084860312156119205761191f6116a9565b5b600061192e868287016117fe565b935050602061193f868287016117fe565b9250506040611950868287016116cf565b9150509250925092565b600081519050611969816116b8565b92915050565b600060208284031215611985576119846116a9565b5b60006119938482850161195a565b91505092915050565b60006040820190506119b1600083018561187c565b6119be6020830184611711565b9392505050565b7f4e487b7100000000000000000000000000000000000000000000000000000000600052601160045260246000fd5b60006119ff826116ae565b9150611a0a836116ae565b9250828202611a18816116ae565b91508282048414831517611a2f57611a2e6119c5565b5b5092915050565b7f4e487b7100000000000000000000000000000000000000000000000000000000600052601260045260246000fd5b6000611a70826116ae565b9150611a7b836116ae565b925082611a8b57611a8a611a36565b5b828204905092915050565b60008115159050919050565b611aab81611a96565b8114611ab657600080fd5b50565b600081519050611ac881611aa2565b92915050565b600060208284031215611ae457611ae36116a9565b5b6000611af284828501611ab9565b91505092915050565b6000611b06826116ae565b9150611b11836116ae565b9250828203905081811115611b2957611b286119c5565b5b92915050565b6000611b3a826116ae565b91507fffffffffffffffffffffffffffffffffffffffffffffffffffffffffffffffff8203611b6c57611b6b6119c5565b5b600182019050919050565b600082825260208201905092915050565b7f546f6b656e20616c726561647920737570706f72746564000000000000000000600082015250565b6000611bbe601783611b77565b9150611bc982611b88565b602082019050919050565b60006020820190508181036000830152611bed81611bb1565b9050919050565b611bfd816118a6565b8114611c0857600080fd5b50565b600081519050611c1a81611bf4565b92915050565b600060208284031215611c3657611c356116a9565b5b6000611c4484828501611c0b565b91505092915050565b6000611c58826116ae565b9150611c63836116ae565b9250828201905080821115611c7b57611c7a6119c5565b5b92915050565b7f546f6b656e206e6f7420737570706f7274656400000000000000000000000000600082015250565b6000611cb7601383611b77565b9150611cc282611c81565b602082019050919050565b60006020820190508181036000830152611ce681611caa565b9050919050565b6000604082019050611d02600083018561187c565b611d0f602083018461187c565b9392505050565b600081519050611d25816117e7565b92915050565b600060208284031215611d4157611d406116a9565b5b6000611d4f84828501611d16565b91505092915050565b7f5061697220646f6573206e6f74206578697374206f6e20556e6973776170205660008201527f3200000000000000000000000000000000000000000000000000000000000000602082015250565b6000611db4602183611b77565b9150611dbf82611d58565b604082019050919050565b60006020820190508181036000830152611de381611da7565b9050919050565b60006dffffffffffffffffffffffffffff82169050919050565b611e0d81611dea565b8114611e1857600080fd5b50565b600081519050611e2a81611e04565b92915050565b600063ffffffff82169050919050565b611e4981611e30565b8114611e5457600080fd5b50565b600081519050611e6681611e40565b92915050565b600080600060608486031215611e8557611e846116a9565b5b6000611e9386828701611e1b565b9350506020611ea486828701611e1b565b9250506040611eb586828701611e57565b9150509250925092565b6000611eca826118a6565b9150611ed5836118a6565b9250828203905060ff811115611eee57611eed6119c5565b5b92915050565b60008160011c9050919050565b6000808291508390505b6001851115611f4b57808604811115611f2757611f266119c5565b5b6001851615611f365780820291505b8081029050611f4485611ef4565b9450611f0b565b94509492505050565b600082611f645760019050612020565b81611f725760009050612020565b8160018114611f885760028114611f9257611fc1565b6001915050612020565b60ff841115611fa457611fa36119c5565b5b8360020a915084821115611fbb57611fba6119c5565b5b50612020565b5060208310610133831016604e8410600b8410161715611ff65782820a905083811115611ff157611ff06119c5565b5b612020565b6120038484846001611f01565b9250905081840481111561201a576120196119c5565b5b81810290505b9392505050565b6000612032826116ae565b915061203d836118a6565b925061206a7fffffffffffffffffffffffffffffffffffffffffffffffffffffffffffffffff8484611f54565b905092915050565b7f4f757420746f6b656e206e6f7420737570706f72746564000000000000000000600082015250565b60006120a8601783611b77565b91506120b382612072565b602082019050919050565b600060208201905081810360008301526120d78161209b565b9050919050565b7f496e20746f6b656e206e6f7420737570706f7274656400000000000000000000600082015250565b6000612114601683611b77565b915061211f826120de565b602082019050919050565b6000602082019050818103600083015261214381612107565b9050919050565b7f496e73756666696369656e742062616c616e6365000000000000000000000000600082015250565b6000612180601483611b77565b915061218b8261214a565b602082019050919050565b600060208201905081810360008301526121af81612173565b9050919050565b60006060820190506121cb600083018661187c565b6121d8602083018561187c565b6121e56040830184611711565b94935050505056fea2646970667358221220bfe4a6c97ed718bbcaedab64ea4bd9db6593c32300a2d1be60f9dbc029c2967a64736f6c634300081c003360a060405234801561001057600080fd5b5060405161175938038061175983398181016040528101906100329190610206565b81818160039081610043919061049f565b508060049081610053919061049f565b5050503373ffffffffffffffffffffffffffffffffffffffff1660808173ffffffffffffffffffffffffffffffffffffffff16815250505050610571565b6000604051905090565b600080fd5b600080fd5b600080fd5b600080fd5b6000601f19601f8301169050919050565b7f4e487b7100000000000000000000000000000000000000000000000000000000600052604160045260246000fd5b6100f8826100af565b810181811067ffffffffffffffff82111715610117576101166100c0565b5b80604052505050565b600061012a610091565b905061013682826100ef565b919050565b600067ffffffffffffffff821115610156576101556100c0565b5b61015f826100af565b9050602081019050919050565b60005b8381101561018a57808201518184015260208101905061016f565b60008484015250505050565b60006101a96101a48461013b565b610120565b9050828152602081018484840111156101c5576101c46100aa565b5b6101d084828561016c565b509392505050565b600082601f8301126101ed576101ec6100a5565b5b81516101fd848260208601610196565b91505092915050565b6000806040838503121561021d5761021c61009b565b5b600083015167ffffffffffffffff81111561023b5761023a6100a0565b5b610247858286016101d8565b925050602083015167ffffffffffffffff811115610268576102676100a0565b5b610274858286016101d8565b9150509250929050565b600081519050919050565b7f4e487b7100000000000000000000000000000000000000000000000000000000600052602260045260246000fd5b600060028204905060018216806102d057607f821691505b6020821081036102e3576102e2610289565b5b50919050565b60008190508160005260206000209050919050565b60006020601f8301049050919050565b600082821b905092915050565b60006008830261034b7fffffffffffffffffffffffffffffffffffffffffffffffffffffffffffffffff8261030e565b610355868361030e565b95508019841693508086168417925050509392505050565b6000819050919050565b6000819050919050565b600061039c6103976103928461036d565b610377565b61036d565b9050919050565b6000819050919050565b6103b683610381565b6103ca6103c2826103a3565b84845461031b565b825550505050565b600090565b6103df6103d2565b6103ea8184846103ad565b505050565b5b8181101561040e576104036000826103d7565b6001810190506103f0565b5050565b601f82111561045357610424816102e9565b61042d846102fe565b8101602085101561043c578190505b610450610448856102fe565b8301826103ef565b50505b505050565b600082821c905092915050565b600061047660001984600802610458565b1980831691505092915050565b600061048f8383610465565b9150826002028217905092915050565b6104a88261027e565b67ffffffffffffffff8111156104c1576104c06100c0565b5b6104cb82546102b8565b6104d6828285610412565b600060209050601f83116001811461050957600084156104f7578287015190505b6105018582610483565b865550610569565b601f198416610517866102e9565b60005b8281101561053f5784890151825560018201915060208501945060208101905061051a565b8683101561055c5784890151610558601f891682610465565b8355505b6001600288020188555050505b505050505050565b6080516111bf61059a6000396000818161037001528181610454015261050a01526111bf6000f3fe608060405234801561001057600080fd5b50600436106100b45760003560e01c806370a082311161007157806370a082311461018f5780638da5cb5b146101bf57806395d89b41146101dd5780639dc29fac146101fb578063a9059cbb14610217578063dd62ed3e14610247576100b4565b806306fdde03146100b9578063095ea7b3146100d757806318160ddd1461010757806323b872dd14610125578063313ce5671461015557806340c10f1914610173575b600080fd5b6100c1610277565b6040516100ce9190610d81565b60405180910390f35b6100f160048036038101906100ec9190610e3c565b610309565b6040516100fe9190610e97565b60405180910390f35b61010f61032c565b60405161011c9190610ec1565b60405180910390f35b61013f600480360381019061013a9190610edc565b610336565b60405161014c9190610e97565b60405180910390f35b61015d610365565b60405161016a9190610f4b565b60405180910390f35b61018d60048036038101906101889190610e3c565b61036e565b005b6101a960048036038101906101a49190610f66565b61040a565b6040516101b69190610ec1565b60405180910390f35b6101c7610452565b6040516101d49190610fa2565b60405180910390f35b6101e5610476565b6040516101f29190610d81565b60405180910390f35b61021560048036038101906102109190610e3c565b610508565b005b610231600480360381019061022c9190610e3c565b6105a4565b60405161023e9190610e97565b60405180910390f35b610261600480360381019061025c9190610fbd565b6105c7565b60405161026e9190610ec1565b60405180910390f35b6060600380546102869061102c565b80601f01602080910402602001604051908101604052809291908181526020018280546102b29061102c565b80156102ff5780601f106102d4576101008083540402835291602001916102ff565b820191906000526020600020905b8154815290600101906020018083116102e257829003601f168201915b5050505050905090565b60008061031461064e565b9050610321818585610656565b600191505092915050565b6000600254905090565b60008061034161064e565b905061034e858285610668565b6103598585856106fd565b60019150509392505050565b60006012905090565b7f000000000000000000000000000000000000000000000000000000000000000073ffffffffffffffffffffffffffffffffffffffff163373ffffffffffffffffffffffffffffffffffffffff16146103fc576040517f08c379a00000000000000000000000000000000000000000000000000000000081526004016103f3906110cf565b60405180910390fd5b61040682826107f1565b5050565b60008060008373ffffffffffffffffffffffffffffffffffffffff1673ffffffffffffffffffffffffffffffffffffffff168152602001908152602001600020549050919050565b7f000000000000000000000000000000000000000000000000000000000000000081565b6060600480546104859061102c565b80601f01602080910402602001604051908101604052809291908181526020018280546104b19061102c565b80156104fe5780601f106104d3576101008083540402835291602001916104fe565b820191906000526020600020905b8154815290600101906020018083116104e157829003601f168201915b5050505050905090565b7f000000000000000000000000000000000000000000000000000000000000000073ffffffffffffffffffffffffffffffffffffffff163373ffffffffffffffffffffffffffffffffffffffff1614610596576040517f08c379a000000000000000000000000000000000000000000000000000000000815260040161058d906110cf565b60405180910390fd5b6105a08282610873565b5050565b6000806105af61064e565b90506105bc8185856106fd565b600191505092915050565b6000600160008473ffffffffffffffffffffffffffffffffffffffff1673ffffffffffffffffffffffffffffffffffffffff16815260200190815260200160002060008373ffffffffffffffffffffffffffffffffffffffff1673ffffffffffffffffffffffffffffffffffffffff16815260200190815260200160002054905092915050565b600033905090565b61066383838360016108f5565b505050565b600061067484846105c7565b90507fffffffffffffffffffffffffffffffffffffffffffffffffffffffffffffffff8110156106f757818110156106e7578281836040517ffb8f41b20000000000000000000000000000000000000000000000000000000081526004016106de939291906110ef565b60405180910390fd5b6106f6848484840360006108f5565b5b50505050565b600073ffffffffffffffffffffffffffffffffffffffff168373ffffffffffffffffffffffffffffffffffffffff160361076f5760006040517f96c6fd1e0000000000000000000000000000000000000000000000000000000081526004016107669190610fa2565b60405180910390fd5b600073ffffffffffffffffffffffffffffffffffffffff168273ffffffffffffffffffffffffffffffffffffffff16036107e15760006040517fec442f050000000000000000000000000000000000000000000000000000000081526004016107d89190610fa2565b60405180910390fd5b6107ec838383610acc565b505050565b600073ffffffffffffffffffffffffffffffffffffffff168273ffffffffffffffffffffffffffffffffffffffff16036108635760006040517fec442f0500000000000000000000000000000000000000000000000000000000815260040161085a9190610fa2565b60405180910390fd5b61086f60008383610acc565b5050565b600073ffffffffffffffffffffffffffffffffffffffff168273ffffffffffffffffffffffffffffffffffffffff16036108e55760006040517f96c6fd1e0000000000000000000000000000000000000000000000000000000081526004016108dc9190610fa2565b60405180910390fd5b6108f182600083610acc565b5050565b600073ffffffffffffffffffffffffffffffffffffffff168473ffffffffffffffffffffffffffffffffffffffff16036109675760006040517fe602df0500000000000000000000000000000000000000000000000000000000815260040161095e9190610fa2565b60405180910390fd5b600073ffffffffffffffffffffffffffffffffffffffff168373ffffffffffffffffffffffffffffffffffffffff16036109d95760006040517f94280d620000000000000000000000000000000000000000000000000000000081526004016109d09190610fa2565b60405180910390fd5b81600160008673ffffffffffffffffffffffffffffffffffffffff1673ffffffffffffffffffffffffffffffffffffffff16815260200190815260200160002060008573ffffffffffffffffffffffffffffffffffffffff1673ffffffffffffffffffffffffffffffffffffffff168152602001908152602001600020819055508015610ac6578273ffffffffffffffffffffffffffffffffffffffff168473ffffffffffffffffffffffffffffffffffffffff167f8c5be1e5ebec7d5bd14f71427d1e84f3dd0314c0f7b2291e5b200ac8c7c3b92584604051610abd9190610ec1565b60405180910390a35b50505050565b600073ffffffffffffffffffffffffffffffffffffffff168373ffffffffffffffffffffffffffffffffffffffff1603610b1e578060026000828254610b129190611155565b92505081905550610bf1565b60008060008573ffffffffffffffffffffffffffffffffffffffff1673ffffffffffffffffffffffffffffffffffffffff16815260200190815260200160002054905081811015610baa578381836040517fe450d38c000000000000000000000000000000000000000000000000000000008152600401610ba1939291906110ef565b60405180910390fd5b8181036000808673ffffffffffffffffffffffffffffffffffffffff1673ffffffffffffffffffffffffffffffffffffffff16815260200190815260200160002081905550505b600073ffffffffffffffffffffffffffffffffffffffff168273ffffffffffffffffffffffffffffffffffffffff1603610c3a5780600260008282540392505081905550610c87565b806000808473ffffffffffffffffffffffffffffffffffffffff1673ffffffffffffffffffffffffffffffffffffffff168152602001908152602001600020600082825401925050819055505b8173ffffffffffffffffffffffffffffffffffffffff168373ffffffffffffffffffffffffffffffffffffffff167fddf252ad1be2c89b69c2b068fc378daa952ba7f163c4a11628f55a4df523b3ef83604051610ce49190610ec1565b60405180910390a3505050565b600081519050919050565b600082825260208201905092915050565b60005b83811015610d2b578082015181840152602081019050610d10565b60008484015250505050565b6000601f19601f8301169050919050565b6000610d5382610cf1565b610d5d8185610cfc565b9350610d6d818560208601610d0d565b610d7681610d37565b840191505092915050565b60006020820190508181036000830152610d9b8184610d48565b905092915050565b600080fd5b600073ffffffffffffffffffffffffffffffffffffffff82169050919050565b6000610dd382610da8565b9050919050565b610de381610dc8565b8114610dee57600080fd5b50565b600081359050610e0081610dda565b92915050565b6000819050919050565b610e1981610e06565b8114610e2457600080fd5b50565b600081359050610e3681610e10565b92915050565b60008060408385031215610e5357610e52610da3565b5b6000610e6185828601610df1565b9250506020610e7285828601610e27565b9150509250929050565b60008115159050919050565b610e9181610e7c565b82525050565b6000602082019050610eac6000830184610e88565b92915050565b610ebb81610e06565b82525050565b6000602082019050610ed66000830184610eb2565b92915050565b600080600060608486031215610ef557610ef4610da3565b5b6000610f0386828701610df1565b9350506020610f1486828701610df1565b9250506040610f2586828701610e27565b9150509250925092565b600060ff82169050919050565b610f4581610f2f565b82525050565b6000602082019050610f606000830184610f3c565b92915050565b600060208284031215610f7c57610f7b610da3565b5b6000610f8a84828501610df1565b91505092915050565b610f9c81610dc8565b82525050565b6000602082019050610fb76000830184610f93565b92915050565b60008060408385031215610fd457610fd3610da3565b5b6000610fe285828601610df1565b9250506020610ff385828601610df1565b9150509250929050565b7f4e487b7100000000000000000000000000000000000000000000000000000000600052602260045260246000fd5b6000600282049050600182168061104457607f821691505b60208210810361105757611056610ffd565b5b50919050565b7f4f6e6c79206f776e65722063616e2063616c6c20746869732066756e6374696f60008201527f6e00000000000000000000000000000000000000000000000000000000000000602082015250565b60006110b9602183610cfc565b91506110c48261105d565b604082019050919050565b600060208201905081810360008301526110e8816110ac565b9050919050565b60006060820190506111046000830186610f93565b6111116020830185610eb2565b61111e6040830184610eb2565b949350505050565b7f4e487b7100000000000000000000000000000000000000000000000000000000600052601160045260246000fd5b600061116082610e06565b915061116b83610e06565b925082820190508082111561118357611182611126565b5b9291505056fea264697066735822122024c06c413bb8d731faeb77f0ed55e22ad6ccdfd65a7988629e933ed94ab8440a64736f6c634300081c0033a264697066735822122057c4f9095320b84ad9346755b93305a0748729bb0abd8943bb9cc19f8d82267364736f6c634300081c0033",
  "linkReferences": {},
  "deployedLinkReferences": {}
}